{
  "_format": "hh-sol-artifact-1",
  "contractName": "UserStorageData",
  "sourceName": "contracts/storeUserData.sol",
  "abi": [
    {
      "inputs": [
        {
          "internalType": "address",
          "name": "poolAddress",
          "type": "address"
        },
        {
          "internalType": "address",
          "name": "tokenAddress0",
          "type": "address"
        },
        {
          "internalType": "address",
          "name": "tokenAddress1",
          "type": "address"
        }
      ],
      "name": "addToBlockchain",
      "outputs": [],
      "stateMutability": "nonpayable",
      "type": "function"
    },
    {
      "inputs": [],
      "name": "getAllTransactions",
      "outputs": [
        {
          "components": [
            {
              "internalType": "address",
              "name": "caller",
              "type": "address"
            },
            {
              "internalType": "address",
              "name": "poolAddress",
              "type": "address"
            },
            {
              "internalType": "address",
              "name": "tokenAddress0",
              "type": "address"
            },
            {
              "internalType": "address",
              "name": "tokenAddress1",
              "type": "address"
            }
          ],
          "internalType": "struct UserStorageData.TransactionStruck[]",
          "name": "",
          "type": "tuple[]"
        }
      ],
      "stateMutability": "view",
      "type": "function"
    },
    {
      "stateMutability": "payable",
      "type": "receive"
    }
  ],
  "bytecode": "0x608060405234801561001057600080fd5b50610420806100206000396000f3fe60806040526004361061002d5760003560e01c806327506f5314610039578063890cb4e91461006457610034565b3661003457005b600080fd5b34801561004557600080fd5b5061004e610086565b60405161005b919061038a565b60405180910390f35b34801561007057600080fd5b5061008461007f366004610271565b610126565b005b60606000805480602002602001604051908101604052809291908181526020016000905b8282101561011d5760008481526020908190206040805160808101825260048602909201805473ffffffffffffffffffffffffffffffffffffffff9081168452600180830154821685870152600283015482169385019390935260039091015416606083015290835290920191016100aa565b50505050905090565b6040805160808101825233815273ffffffffffffffffffffffffffffffffffffffff948516602082019081529385169181019182529184166060830190815260008054600181018255908052925160049093027f290decd9548b62a8d60345a988386fc84ba6bc95484008f6362f93160ef3e563810180549487167fffffffffffffffffffffffff000000000000000000000000000000000000000095861617905593517f290decd9548b62a8d60345a988386fc84ba6bc95484008f6362f93160ef3e5648501805491871691851691909117905590517f290decd9548b62a8d60345a988386fc84ba6bc95484008f6362f93160ef3e56584018054918616918416919091179055517f290decd9548b62a8d60345a988386fc84ba6bc95484008f6362f93160ef3e5669092018054929093169116179055565b803561026b816103d3565b92915050565b60008060006060848603121561028657600080fd5b60006102928686610260565b93505060206102a386828701610260565b92505060406102b486828701610260565b9150509250925092565b60006102ca838361033a565b505060800190565b6102db816103b5565b82525050565b60006102ec826103a8565b6102f681856103ac565b9350610301836103a2565b8060005b8381101561032f57815161031988826102be565b9750610324836103a2565b925050600101610305565b509495945050505050565b8051608083019061034b84826102d2565b50602082015161035e60208501826102d2565b50604082015161037160408501826102d2565b50606082015161038460608501826102d2565b50505050565b6020808252810161039b81846102e1565b9392505050565b60200190565b5190565b90815260200190565b600073ffffffffffffffffffffffffffffffffffffffff821661026b565b6103dc816103b5565b81146103e757600080fd5b5056fea2646970667358221220f02cd74d48d240b0782ea3b619308886b3923e845607811c890533935f793e1864736f6c63430007060033",
  "linkReferences": {},
  "deployedLinkReferences": {}
}